{
  "contractName": "Final",
  "abi": [
    {
      "inputs": [],
      "payable": false,
      "stateMutability": "nonpayable",
      "type": "constructor",
      "signature": "constructor"
    },
    {
      "anonymous": false,
      "inputs": [
        {
          "indexed": false,
          "name": "itemNumber",
          "type": "uint256"
        }
      ],
      "name": "ForSale",
      "type": "event",
      "signature": "0xa96ae0fc3224ebd79eebfe54bd130cc9cb94416cddd1f2386115e00b72532468"
    },
    {
      "anonymous": false,
      "inputs": [
        {
          "indexed": false,
          "name": "itemNumber",
          "type": "uint256"
        }
      ],
      "name": "ForAuction",
      "type": "event",
      "signature": "0x3802b4c53cd90ec8bc4edc6e8b669e5af29378c730ac41882495b901dc33e6e9"
    },
    {
      "anonymous": false,
      "inputs": [
        {
          "indexed": false,
          "name": "itemNumber",
          "type": "uint256"
        }
      ],
      "name": "Sold",
      "type": "event",
      "signature": "0x92f64ca637d023f354075a4be751b169c1a8a9ccb6d33cdd0cb3520543995727"
    },
    {
      "anonymous": false,
      "inputs": [
        {
          "indexed": false,
          "name": "itemNumber",
          "type": "uint256"
        }
      ],
      "name": "Shipped",
      "type": "event",
      "signature": "0xf00b9a5725b80c54016f42114f6ed7792d22eecb116011c4afac29c57bef6c95"
    },
    {
      "anonymous": false,
      "inputs": [
        {
          "indexed": false,
          "name": "itemNumber",
          "type": "uint256"
        }
      ],
      "name": "Received",
      "type": "event",
      "signature": "0xa8142743f8f70a4c26f3691cf4ed59718381fb2f18070ec52be1f1022d855557"
    },
    {
      "anonymous": false,
      "inputs": [
        {
          "indexed": false,
          "name": "itemNumber",
          "type": "uint256"
        },
        {
          "indexed": false,
          "name": "bidder",
          "type": "address"
        },
        {
          "indexed": false,
          "name": "amount",
          "type": "uint256"
        }
      ],
      "name": "HighestBidIncreased",
      "type": "event",
      "signature": "0xda0a18da71d8ebd145966339a728fc0d8ccc07c22870d561890d823c515dda6b"
    },
    {
      "anonymous": false,
      "inputs": [
        {
          "indexed": false,
          "name": "winner",
          "type": "address"
        },
        {
          "indexed": false,
          "name": "amount",
          "type": "uint256"
        }
      ],
      "name": "AuctionEnded",
      "type": "event",
      "signature": "0xdaec4582d5d9595688c8c98545fdd1c696d41c6aeaeb636737e84ed2f5c00eda"
    },
    {
      "constant": false,
      "inputs": [],
      "name": "toggleStop",
      "outputs": [],
      "payable": false,
      "stateMutability": "nonpayable",
      "type": "function",
      "signature": "0x9a70eef1"
    },
    {
      "constant": true,
      "inputs": [],
      "name": "getNumItems",
      "outputs": [
        {
          "name": "",
          "type": "uint256"
        }
      ],
      "payable": false,
      "stateMutability": "view",
      "type": "function",
      "signature": "0xeaf7e325"
    },
    {
      "constant": true,
      "inputs": [
        {
          "name": "addr",
          "type": "address"
        }
      ],
      "name": "checkAdmin",
      "outputs": [
        {
          "name": "",
          "type": "uint256"
        }
      ],
      "payable": false,
      "stateMutability": "view",
      "type": "function",
      "signature": "0x9026dee8"
    },
    {
      "constant": true,
      "inputs": [
        {
          "name": "addr",
          "type": "address"
        }
      ],
      "name": "checkSeller",
      "outputs": [
        {
          "name": "",
          "type": "uint256"
        }
      ],
      "payable": false,
      "stateMutability": "view",
      "type": "function",
      "signature": "0xc3395530"
    },
    {
      "constant": true,
      "inputs": [
        {
          "name": "addr",
          "type": "address"
        }
      ],
      "name": "checkBlacklist",
      "outputs": [
        {
          "name": "",
          "type": "uint256"
        }
      ],
      "payable": false,
      "stateMutability": "view",
      "type": "function",
      "signature": "0xe6807ca9"
    },
    {
      "constant": false,
      "inputs": [
        {
          "name": "newAdmin",
          "type": "address"
        }
      ],
      "name": "addAdmin",
      "outputs": [],
      "payable": true,
      "stateMutability": "payable",
      "type": "function",
      "signature": "0x70480275"
    },
    {
      "constant": false,
      "inputs": [
        {
          "name": "newAdmin",
          "type": "address"
        }
      ],
      "name": "removeAdmin",
      "outputs": [],
      "payable": false,
      "stateMutability": "nonpayable",
      "type": "function",
      "signature": "0x1785f53c"
    },
    {
      "constant": false,
      "inputs": [
        {
          "name": "newSeller",
          "type": "address"
        }
      ],
      "name": "addSeller",
      "outputs": [],
      "payable": true,
      "stateMutability": "payable",
      "type": "function",
      "signature": "0xd93fabfa"
    },
    {
      "constant": false,
      "inputs": [
        {
          "name": "newSeller",
          "type": "address"
        }
      ],
      "name": "removeSeller",
      "outputs": [],
      "payable": false,
      "stateMutability": "nonpayable",
      "type": "function",
      "signature": "0x7cb9cf54"
    },
    {
      "constant": false,
      "inputs": [
        {
          "name": "newBlacklist",
          "type": "address"
        }
      ],
      "name": "addBlacklist",
      "outputs": [],
      "payable": false,
      "stateMutability": "nonpayable",
      "type": "function",
      "signature": "0x9cfe42da"
    },
    {
      "constant": false,
      "inputs": [
        {
          "name": "newBlacklist",
          "type": "address"
        }
      ],
      "name": "removeBlacklist",
      "outputs": [],
      "payable": false,
      "stateMutability": "nonpayable",
      "type": "function",
      "signature": "0xeb91e651"
    },
    {
      "constant": false,
      "inputs": [
        {
          "name": "_name",
          "type": "string"
        },
        {
          "name": "_price",
          "type": "uint256"
        },
        {
          "name": "_state",
          "type": "uint8"
        },
        {
          "name": "_auctionLengthTime",
          "type": "uint256"
        },
        {
          "name": "_ipfsHash",
          "type": "string"
        }
      ],
      "name": "addItem",
      "outputs": [
        {
          "name": "",
          "type": "bool"
        }
      ],
      "payable": false,
      "stateMutability": "nonpayable",
      "type": "function",
      "signature": "0xa6f24f5b"
    },
    {
      "constant": false,
      "inputs": [
        {
          "name": "itemNumber",
          "type": "uint256"
        }
      ],
      "name": "submitBid",
      "outputs": [],
      "payable": true,
      "stateMutability": "payable",
      "type": "function",
      "signature": "0x74bdda15"
    },
    {
      "constant": false,
      "inputs": [
        {
          "name": "itemNumber",
          "type": "uint256"
        }
      ],
      "name": "auctionEnd",
      "outputs": [],
      "payable": true,
      "stateMutability": "payable",
      "type": "function",
      "signature": "0x32246e9f"
    },
    {
      "constant": false,
      "inputs": [],
      "name": "withdraw",
      "outputs": [],
      "payable": true,
      "stateMutability": "payable",
      "type": "function",
      "signature": "0x3ccfd60b"
    },
    {
      "constant": false,
      "inputs": [
        {
          "name": "itemNumber",
          "type": "uint256"
        }
      ],
      "name": "buyItem",
      "outputs": [],
      "payable": true,
      "stateMutability": "payable",
      "type": "function",
      "signature": "0xe7fb74c7"
    },
    {
      "constant": false,
      "inputs": [
        {
          "name": "itemNumber",
          "type": "uint256"
        }
      ],
      "name": "shipItem",
      "outputs": [],
      "payable": false,
      "stateMutability": "nonpayable",
      "type": "function",
      "signature": "0xf61c899a"
    },
    {
      "constant": false,
      "inputs": [
        {
          "name": "itemNumber",
          "type": "uint256"
        },
        {
          "name": "rateSeller",
          "type": "bool"
        },
        {
          "name": "_sellerRating",
          "type": "uint256"
        }
      ],
      "name": "receiveItem",
      "outputs": [],
      "payable": false,
      "stateMutability": "nonpayable",
      "type": "function",
      "signature": "0x461173fa"
    },
    {
      "constant": true,
      "inputs": [
        {
          "name": "itemNumber",
          "type": "uint256"
        }
      ],
      "name": "getIpfsHash",
      "outputs": [
        {
          "name": "",
          "type": "string"
        }
      ],
      "payable": false,
      "stateMutability": "view",
      "type": "function",
      "signature": "0xd450fbc9"
    },
    {
      "constant": true,
      "inputs": [
        {
          "name": "itemNumber",
          "type": "uint256"
        }
      ],
      "name": "getItemData",
      "outputs": [
        {
          "name": "_name",
          "type": "string"
        },
        {
          "name": "_price",
          "type": "uint256"
        },
        {
          "name": "_auctionStart",
          "type": "uint256"
        },
        {
          "name": "_auctionLength",
          "type": "uint256"
        },
        {
          "name": "_highestBid",
          "type": "uint256"
        },
        {
          "name": "_state",
          "type": "uint8"
        },
        {
          "name": "_seller",
          "type": "address"
        }
      ],
      "payable": false,
      "stateMutability": "view",
      "type": "function",
      "signature": "0x8bc6976e"
    },
    {
      "constant": true,
      "inputs": [
        {
          "name": "itemNumber",
          "type": "uint256"
        }
      ],
      "name": "getHighBidder",
      "outputs": [
        {
          "name": "",
          "type": "address"
        }
      ],
      "payable": false,
      "stateMutability": "view",
      "type": "function",
      "signature": "0xdc6c7c2c"
    }
  ],
  "bytecode": "0x608060405234801561001057600080fd5b506000600560006101000a81548160ff021916908315150217905550336000806101000a81548173ffffffffffffffffffffffffffffffffffffffff021916908373ffffffffffffffffffffffffffffffffffffffff1602179055506001600660008060009054906101000a900473ffffffffffffffffffffffffffffffffffffffff1673ffffffffffffffffffffffffffffffffffffffff1673ffffffffffffffffffffffffffffffffffffffff1681526020019081526020016000208190555060018081905550600060048190555060006002819055506000600381905550612cd7806101006000396000f3fe60806040526004361061011d576000357c0100000000000000000000000000000000000000000000000000000000900463ffffffff1680631785f53c1461012257806332246e9f146101735780633ccfd60b146101a1578063461173fa146101ab57806370480275146101fc57806374bdda15146102405780637cb9cf541461026e5780638bc6976e146102bf5780639026dee8146103d75780639a70eef11461043c5780639cfe42da14610453578063a6f24f5b146104a4578063c33955301461063c578063d450fbc9146106a1578063d93fabfa14610755578063dc6c7c2c14610799578063e6807ca914610814578063e7fb74c714610879578063eaf7e325146108a7578063eb91e651146108d2578063f61c899a14610923575b600080fd5b34801561012e57600080fd5b506101716004803603602081101561014557600080fd5b81019080803573ffffffffffffffffffffffffffffffffffffffff16906020019092919050505061095e565b005b61019f6004803603602081101561018957600080fd5b8101908080359060200190929190505050610a63565b005b6101a9610d98565b005b3480156101b757600080fd5b506101fa600480360360608110156101ce57600080fd5b810190808035906020019092919080351515906020019092919080359060200190929190505050610e75565b005b61023e6004803603602081101561021257600080fd5b81019080803573ffffffffffffffffffffffffffffffffffffffff1690602001909291905050506112c1565b005b61026c6004803603602081101561025657600080fd5b8101908080359060200190929190505050611402565b005b34801561027a57600080fd5b506102bd6004803603602081101561029157600080fd5b81019080803573ffffffffffffffffffffffffffffffffffffffff169060200190929190505050611712565b005b3480156102cb57600080fd5b506102f8600480360360208110156102e257600080fd5b8101908080359060200190929190505050611817565b604051808060200188815260200187815260200186815260200185815260200184600481111561032457fe5b60ff1681526020018373ffffffffffffffffffffffffffffffffffffffff1673ffffffffffffffffffffffffffffffffffffffff168152602001828103825289818151815260200191508051906020019080838360005b8381101561039657808201518184015260208101905061037b565b50505050905090810190601f1680156103c35780820380516001836020036101000a031916815260200191505b509850505050505050505060405180910390f35b3480156103e357600080fd5b50610426600480360360208110156103fa57600080fd5b81019080803573ffffffffffffffffffffffffffffffffffffffff1690602001909291905050506119b8565b6040518082815260200191505060405180910390f35b34801561044857600080fd5b50610451611a01565b005b34801561045f57600080fd5b506104a26004803603602081101561047657600080fd5b81019080803573ffffffffffffffffffffffffffffffffffffffff169060200190929190505050611a7b565b005b3480156104b057600080fd5b50610622600480360360a08110156104c757600080fd5b81019080803590602001906401000000008111156104e457600080fd5b8201836020820111156104f657600080fd5b8035906020019184600183028401116401000000008311171561051857600080fd5b91908080601f016020809104026020016040519081016040528093929190818152602001838380828437600081840152601f19601f82011690508083019250505050505050919291929080359060200190929190803560ff169060200190929190803590602001909291908035906020019064010000000081111561059c57600080fd5b8201836020820111156105ae57600080fd5b803590602001918460018302840111640100000000831117156105d057600080fd5b91908080601f016020809104026020016040519081016040528093929190818152602001838380828437600081840152601f19601f820116905080830192505050505050509192919290505050611b71565b604051808215151515815260200191505060405180910390f35b34801561064857600080fd5b5061068b6004803603602081101561065f57600080fd5b81019080803573ffffffffffffffffffffffffffffffffffffffff169060200190929190505050611edc565b6040518082815260200191505060405180910390f35b3480156106ad57600080fd5b506106da600480360360208110156106c457600080fd5b8101908080359060200190929190505050611f25565b6040518080602001828103825283818151815260200191508051906020019080838360005b8381101561071a5780820151818401526020810190506106ff565b50505050905090810190601f1680156107475780820380516001836020036101000a031916815260200191505b509250505060405180910390f35b6107976004803603602081101561076b57600080fd5b81019080803573ffffffffffffffffffffffffffffffffffffffff169060200190929190505050611fee565b005b3480156107a557600080fd5b506107d2600480360360208110156107bc57600080fd5b810190808035906020019092919050505061213b565b604051808273ffffffffffffffffffffffffffffffffffffffff1673ffffffffffffffffffffffffffffffffffffffff16815260200191505060405180910390f35b34801561082057600080fd5b506108636004803603602081101561083757600080fd5b81019080803573ffffffffffffffffffffffffffffffffffffffff16906020019092919050505061218c565b6040518082815260200191505060405180910390f35b6108a56004803603602081101561088f57600080fd5b81019080803590602001909291905050506121d5565b005b3480156108b357600080fd5b506108bc6124e7565b6040518082815260200191505060405180910390f35b3480156108de57600080fd5b50610921600480360360208110156108f557600080fd5b81019080803573ffffffffffffffffffffffffffffffffffffffff1690602001909291905050506124f1565b005b34801561092f57600080fd5b5061095c6004803603602081101561094657600080fd5b81019080803590602001909291905050506125e8565b005b6001600660003373ffffffffffffffffffffffffffffffffffffffff1673ffffffffffffffffffffffffffffffffffffffff168152602001908152602001600020541415156109ac57600080fd5b6001600660008373ffffffffffffffffffffffffffffffffffffffff1673ffffffffffffffffffffffffffffffffffffffff168152602001908152602001600020541480156109fd57506000600154115b1515610a0857600080fd5b6000600660008373ffffffffffffffffffffffffffffffffffffffff1673ffffffffffffffffffffffffffffffffffffffff168152602001908152602001600020819055506001600081548092919060019003919050555050565b600a600082815260200190815260200160002060040160009054906101000a900460ff1660016004811115610a9457fe5b816004811115610aa057fe5b141515610aac57600080fd5b3373ffffffffffffffffffffffffffffffffffffffff16600a600084815260200190815260200160002060080160009054906101000a900473ffffffffffffffffffffffffffffffffffffffff1673ffffffffffffffffffffffffffffffffffffffff161480610b7d57503373ffffffffffffffffffffffffffffffffffffffff16600a600084815260200190815260200160002060040160019054906101000a900473ffffffffffffffffffffffffffffffffffffffff1673ffffffffffffffffffffffffffffffffffffffff16145b80610bc757506001600660003373ffffffffffffffffffffffffffffffffffffffff1673ffffffffffffffffffffffffffffffffffffffff16815260200190815260200160002054145b1515610bd257600080fd5b60016004811115610bdf57fe5b600a600084815260200190815260200160002060040160009054906101000a900460ff166004811115610c0e57fe5b141515610c1a57600080fd5b614e20600a600084815260200190815260200160002060090154111515610c4057600080fd5b600a600083815260200190815260200160002060070154600a6000848152602001908152602001600020600601540142111515610c7c57600080fd5b6002600a600084815260200190815260200160002060040160006101000a81548160ff02191690836004811115610caf57fe5b02179055506000600a600084815260200190815260200160002060040160019054906101000a900473ffffffffffffffffffffffffffffffffffffffff1690506000600a60008581526020019081526020016000206009015490508173ffffffffffffffffffffffffffffffffffffffff166108fc829081150290604051600060405180830381858888f19350505050158015610d50573d6000803e3d6000fd5b50610d926008600a600087815260200190815260200160002060040160019054906101000a900473ffffffffffffffffffffffffffffffffffffffff166129c5565b50505050565b6000600b60003373ffffffffffffffffffffffffffffffffffffffff1673ffffffffffffffffffffffffffffffffffffffff1681526020019081526020016000205490506000811115610e72576000600b60003373ffffffffffffffffffffffffffffffffffffffff1673ffffffffffffffffffffffffffffffffffffffff168152602001908152602001600020819055503373ffffffffffffffffffffffffffffffffffffffff166108fc829081150290604051600060405180830381858888f19350505050158015610e70573d6000803e3d6000fd5b505b50565b600a6000848152602001908152602001600020610180604051908101604052908160008201548152602001600182018054600181600116156101000203166002900480601f016020809104026020016040519081016040528092919081815260200182805460018160011615610100020316600290048015610f385780601f10610f0d57610100808354040283529160200191610f38565b820191906000526020600020905b815481529060010190602001808311610f1b57829003601f168201915b5050505050815260200160028201548152602001600382015481526020016004820160009054906101000a900460ff166004811115610f7357fe5b6004811115610f7e57fe5b81526020016004820160019054906101000a900473ffffffffffffffffffffffffffffffffffffffff1673ffffffffffffffffffffffffffffffffffffffff1673ffffffffffffffffffffffffffffffffffffffff1681526020016005820160009054906101000a900473ffffffffffffffffffffffffffffffffffffffff1673ffffffffffffffffffffffffffffffffffffffff1673ffffffffffffffffffffffffffffffffffffffff16815260200160068201548152602001600782015481526020016008820160009054906101000a900473ffffffffffffffffffffffffffffffffffffffff1673ffffffffffffffffffffffffffffffffffffffff1673ffffffffffffffffffffffffffffffffffffffff16815260200160098201548152602001600a82018054600181600116156101000203166002900480601f01602080910402602001604051908101604052809291908181526020018280546001816001161561010002031660029004801561113b5780601f106111105761010080835404028352916020019161113b565b820191906000526020600020905b81548152906001019060200180831161111e57829003601f168201915b5050505050815250506003600481111561115157fe5b8160800151600481111561116157fe5b14151561116d57600080fd5b600a600085815260200190815260200160002060050160009054906101000a900473ffffffffffffffffffffffffffffffffffffffff168073ffffffffffffffffffffffffffffffffffffffff163373ffffffffffffffffffffffffffffffffffffffff161415156111de57600080fd5b6004600a600087815260200190815260200160002060040160006101000a81548160ff0219169083600481111561121157fe5b02179055507fa8142743f8f70a4c26f3691cf4ed59718381fb2f18070ec52be1f1022d855557856040518082815260200191505060405180910390a16001151584151514156112ba576000831015801561126c575060648311155b151561127757600080fd5b6112b96008600a600088815260200190815260200160002060040160019054906101000a900473ffffffffffffffffffffffffffffffffffffffff1685612a1d565b5b5050505050565b6001600660003373ffffffffffffffffffffffffffffffffffffffff1673ffffffffffffffffffffffffffffffffffffffff1681526020019081526020016000205414151561130f57600080fd5b6000600660008373ffffffffffffffffffffffffffffffffffffffff1673ffffffffffffffffffffffffffffffffffffffff1681526020019081526020016000205414801561139d57506000600960008373ffffffffffffffffffffffffffffffffffffffff1673ffffffffffffffffffffffffffffffffffffffff16815260200190815260200160002054145b15156113a857600080fd5b6001600660008373ffffffffffffffffffffffffffffffffffffffff1673ffffffffffffffffffffffffffffffffffffffff1681526020019081526020016000208190555060016000815480929190600101919050555050565b6000600960003373ffffffffffffffffffffffffffffffffffffffff1673ffffffffffffffffffffffffffffffffffffffff1681526020019081526020016000205414151561145057600080fd5b600a600082815260200190815260200160002060040160009054906101000a900460ff166001600481111561148157fe5b81600481111561148d57fe5b14151561149957600080fd5b600a600083815260200190815260200160002060060154600a6000848152602001908152602001600020600701548142101515156114d657600080fd5b808201421015156114e657600080fd5b600a600085815260200190815260200160002060090154803411151561150b57600080fd5b600560009054906101000a900460ff16151561170b57600073ffffffffffffffffffffffffffffffffffffffff16600a600087815260200190815260200160002060080160009054906101000a900473ffffffffffffffffffffffffffffffffffffffff1673ffffffffffffffffffffffffffffffffffffffff1614151561162757600a600086815260200190815260200160002060090154600b6000600a600089815260200190815260200160002060080160009054906101000a900473ffffffffffffffffffffffffffffffffffffffff1673ffffffffffffffffffffffffffffffffffffffff1673ffffffffffffffffffffffffffffffffffffffff168152602001908152602001600020600082825401925050819055505b33600a600087815260200190815260200160002060080160006101000a81548173ffffffffffffffffffffffffffffffffffffffff021916908373ffffffffffffffffffffffffffffffffffffffff16021790555034600a6000878152602001908152602001600020600901819055507fda0a18da71d8ebd145966339a728fc0d8ccc07c22870d561890d823c515dda6b853334604051808481526020018373ffffffffffffffffffffffffffffffffffffffff1673ffffffffffffffffffffffffffffffffffffffff168152602001828152602001935050505060405180910390a15b5050505050565b6001600660003373ffffffffffffffffffffffffffffffffffffffff1673ffffffffffffffffffffffffffffffffffffffff1681526020019081526020016000205414151561176057600080fd5b6001600760008373ffffffffffffffffffffffffffffffffffffffff1673ffffffffffffffffffffffffffffffffffffffff168152602001908152602001600020541480156117b157506000600254115b15156117bc57600080fd5b6000600760008373ffffffffffffffffffffffffffffffffffffffff1673ffffffffffffffffffffffffffffffffffffffff168152602001908152602001600020819055506002600081548092919060019003919050555050565b6060600080600080600080600454881115151561183357600080fd5b600a6000898152602001908152602001600020600101600a60008a815260200190815260200160002060030154600a60008b815260200190815260200160002060060154600a60008c815260200190815260200160002060070154600a60008d815260200190815260200160002060090154600a60008e815260200190815260200160002060040160009054906101000a900460ff16600a60008f815260200190815260200160002060040160019054906101000a900473ffffffffffffffffffffffffffffffffffffffff16868054600181600116156101000203166002900480601f0160208091040260200160405190810160405280929190818152602001828054600181600116156101000203166002900480156119955780601f1061196a57610100808354040283529160200191611995565b820191906000526020600020905b81548152906001019060200180831161197857829003601f168201915b505050505096508090509650965096509650965096509650919395979092949650565b6000600660008373ffffffffffffffffffffffffffffffffffffffff1673ffffffffffffffffffffffffffffffffffffffff168152602001908152602001600020549050919050565b6001600660003373ffffffffffffffffffffffffffffffffffffffff1673ffffffffffffffffffffffffffffffffffffffff16815260200190815260200160002054141515611a4f57600080fd5b600560009054906101000a900460ff1615600560006101000a81548160ff021916908315150217905550565b6001600660003373ffffffffffffffffffffffffffffffffffffffff1673ffffffffffffffffffffffffffffffffffffffff16815260200190815260200160002054141515611ac957600080fd5b6000600960008373ffffffffffffffffffffffffffffffffffffffff1673ffffffffffffffffffffffffffffffffffffffff16815260200190815260200160002054141515611b1757600080fd5b6001600960008373ffffffffffffffffffffffffffffffffffffffff1673ffffffffffffffffffffffffffffffffffffffff1681526020019081526020016000208190555060036000815480929190600101919050555050565b60006001600760003373ffffffffffffffffffffffffffffffffffffffff1673ffffffffffffffffffffffffffffffffffffffff16815260200190815260200160002054141515611bc157600080fd5b6000600960003373ffffffffffffffffffffffffffffffffffffffff1673ffffffffffffffffffffffffffffffffffffffff16815260200190815260200160002054141515611c0f57600080fd5b600560009054906101000a900460ff161515611ed35760006004811115611c3257fe5b846004811115611c3e57fe5b1480611c60575060016004811115611c5257fe5b846004811115611c5e57fe5b145b8015611c7b575060008310158015611c7a575062278d0083105b5b1515611c8657600080fd5b61018060405190810160405280600454815260200187815260200160008152602001868152602001856004811115611cba57fe5b81526020013373ffffffffffffffffffffffffffffffffffffffff168152602001600073ffffffffffffffffffffffffffffffffffffffff168152602001428152602001848152602001600073ffffffffffffffffffffffffffffffffffffffff1681526020016000815260200183815250600a60006004548152602001908152602001600020600082015181600001556020820151816001019080519060200190611d67929190612c06565b50604082015181600201556060820151816003015560808201518160040160006101000a81548160ff02191690836004811115611da057fe5b021790555060a08201518160040160016101000a81548173ffffffffffffffffffffffffffffffffffffffff021916908373ffffffffffffffffffffffffffffffffffffffff16021790555060c08201518160050160006101000a81548173ffffffffffffffffffffffffffffffffffffffff021916908373ffffffffffffffffffffffffffffffffffffffff16021790555060e0820151816006015561010082015181600701556101208201518160080160006101000a81548173ffffffffffffffffffffffffffffffffffffffff021916908373ffffffffffffffffffffffffffffffffffffffff160217905550610140820151816009015561016082015181600a019080519060200190611eb8929190612c06565b50905050600460008154809291906001019190505550600190505b95945050505050565b6000600760008373ffffffffffffffffffffffffffffffffffffffff1673ffffffffffffffffffffffffffffffffffffffff168152602001908152602001600020549050919050565b60606004548211151515611f3857600080fd5b600a6000838152602001908152602001600020600a018054600181600116156101000203166002900480601f016020809104026020016040519081016040528092919081815260200182805460018160011615610100020316600290048015611fe25780601f10611fb757610100808354040283529160200191611fe2565b820191906000526020600020905b815481529060010190602001808311611fc557829003601f168201915b50505050509050919050565b6001600660003373ffffffffffffffffffffffffffffffffffffffff1673ffffffffffffffffffffffffffffffffffffffff1681526020019081526020016000205414151561203c57600080fd5b6000600760008373ffffffffffffffffffffffffffffffffffffffff1673ffffffffffffffffffffffffffffffffffffffff168152602001908152602001600020541480156120ca57506000600960008373ffffffffffffffffffffffffffffffffffffffff1673ffffffffffffffffffffffffffffffffffffffff16815260200190815260200160002054145b15156120d557600080fd5b6001600760008373ffffffffffffffffffffffffffffffffffffffff1673ffffffffffffffffffffffffffffffffffffffff1681526020019081526020016000208190555060026000815480929190600101919050555061213860084283612b65565b50565b6000600454821115151561214e57600080fd5b600a600083815260200190815260200160002060080160009054906101000a900473ffffffffffffffffffffffffffffffffffffffff169050919050565b6000600960008373ffffffffffffffffffffffffffffffffffffffff1673ffffffffffffffffffffffffffffffffffffffff168152602001908152602001600020549050919050565b6000600960003373ffffffffffffffffffffffffffffffffffffffff1673ffffffffffffffffffffffffffffffffffffffff1681526020019081526020016000205414151561222357600080fd5b600a600082815260200190815260200160002060040160009054906101000a900460ff166000600481111561225457fe5b81600481111561226057fe5b14151561226c57600080fd5b600a60008381526020019081526020016000206003015434811115151561229257600080fd5b600560009054906101000a900460ff1615156124e257600a600084815260200190815260200160002060040160019054906101000a900473ffffffffffffffffffffffffffffffffffffffff1673ffffffffffffffffffffffffffffffffffffffff166108fc600a6000868152602001908152602001600020600301549081150290604051600060405180830381858888f1935050505015801561233a573d6000803e3d6000fd5b5033600a600085815260200190815260200160002060050160006101000a81548173ffffffffffffffffffffffffffffffffffffffff021916908373ffffffffffffffffffffffffffffffffffffffff1602179055506002600a600085815260200190815260200160002060040160006101000a81548160ff021916908360048111156123c357fe5b02179055507f92f64ca637d023f354075a4be751b169c1a8a9ccb6d33cdd0cb3520543995727836040518082815260200191505060405180910390a16124406008600a600086815260200190815260200160002060040160019054906101000a900473ffffffffffffffffffffffffffffffffffffffff166129c5565b6000600a600085815260200190815260200160002060030154905060008134039050600a600086815260200190815260200160002060050160009054906101000a900473ffffffffffffffffffffffffffffffffffffffff1673ffffffffffffffffffffffffffffffffffffffff166108fc829081150290604051600060405180830381858888f193505050501580156124de573d6000803e3d6000fd5b5050505b505050565b6000600454905090565b6001600660003373ffffffffffffffffffffffffffffffffffffffff1673ffffffffffffffffffffffffffffffffffffffff1681526020019081526020016000205414151561253f57600080fd5b6001600960008373ffffffffffffffffffffffffffffffffffffffff1673ffffffffffffffffffffffffffffffffffffffff1681526020019081526020016000205414151561258d57600080fd5b6000600960008373ffffffffffffffffffffffffffffffffffffffff1673ffffffffffffffffffffffffffffffffffffffff168152602001908152602001600020819055506003600081548092919060019003919050555050565b600a6000828152602001908152602001600020610180604051908101604052908160008201548152602001600182018054600181600116156101000203166002900480601f0160208091040260200160405190810160405280929190818152602001828054600181600116156101000203166002900480156126ab5780601f10612680576101008083540402835291602001916126ab565b820191906000526020600020905b81548152906001019060200180831161268e57829003601f168201915b5050505050815260200160028201548152602001600382015481526020016004820160009054906101000a900460ff1660048111156126e657fe5b60048111156126f157fe5b81526020016004820160019054906101000a900473ffffffffffffffffffffffffffffffffffffffff1673ffffffffffffffffffffffffffffffffffffffff1673ffffffffffffffffffffffffffffffffffffffff1681526020016005820160009054906101000a900473ffffffffffffffffffffffffffffffffffffffff1673ffffffffffffffffffffffffffffffffffffffff1673ffffffffffffffffffffffffffffffffffffffff16815260200160068201548152602001600782015481526020016008820160009054906101000a900473ffffffffffffffffffffffffffffffffffffffff1673ffffffffffffffffffffffffffffffffffffffff1673ffffffffffffffffffffffffffffffffffffffff16815260200160098201548152602001600a82018054600181600116156101000203166002900480601f0160208091040260200160405190810160405280929190818152602001828054600181600116156101000203166002900480156128ae5780601f10612883576101008083540402835291602001916128ae565b820191906000526020600020905b81548152906001019060200180831161289157829003601f168201915b505050505081525050600260048111156128c457fe5b816080015160048111156128d457fe5b1415156128e057600080fd5b600a600083815260200190815260200160002060040160019054906101000a900473ffffffffffffffffffffffffffffffffffffffff168073ffffffffffffffffffffffffffffffffffffffff163373ffffffffffffffffffffffffffffffffffffffff1614151561295157600080fd5b6003600a600085815260200190815260200160002060040160006101000a81548160ff0219169083600481111561298457fe5b02179055507ff00b9a5725b80c54016f42114f6ed7792d22eecb116011c4afac29c57bef6c95836040518082815260200191505060405180910390a1505050565b8160000160008273ffffffffffffffffffffffffffffffffffffffff1673ffffffffffffffffffffffffffffffffffffffff168152602001908152602001600020600201600081548092919060010191905055505050565b60008360000160008473ffffffffffffffffffffffffffffffffffffffff1673ffffffffffffffffffffffffffffffffffffffff16815260200190815260200160002060000154905060008460000160008573ffffffffffffffffffffffffffffffffffffffff1673ffffffffffffffffffffffffffffffffffffffff168152602001908152602001600020600101549050600181018382840201811515612ac157fe5b048560000160008673ffffffffffffffffffffffffffffffffffffffff1673ffffffffffffffffffffffffffffffffffffffff168152602001908152602001600020600001819055508460000160008573ffffffffffffffffffffffffffffffffffffffff1673ffffffffffffffffffffffffffffffffffffffff168152602001908152602001600020600101600081548092919060010191905055505050505050565b60008360000160008373ffffffffffffffffffffffffffffffffffffffff1673ffffffffffffffffffffffffffffffffffffffff16815260200190815260200160002060030154141515612bb857600080fd5b818360000160008373ffffffffffffffffffffffffffffffffffffffff1673ffffffffffffffffffffffffffffffffffffffff16815260200190815260200160002060030181905550505050565b828054600181600116156101000203166002900490600052602060002090601f016020900481019282601f10612c4757805160ff1916838001178555612c75565b82800160010185558215612c75579182015b82811115612c74578251825591602001919060010190612c59565b5b509050612c829190612c86565b5090565b612ca891905b80821115612ca4576000816000905550600101612c8c565b5090565b9056fea165627a7a72305820207f5db565b3d095b05bdea41391999ea18ac6465748821901a9d89f88d950550029",
  "source": "pragma solidity ^0.5.0;\n\nimport \"./FinalLibrary.sol\";\n\n/** Main contract for ethereum store **/\ncontract Final {\n  // State variables\n  address owner;\n  uint adminCount;\n  uint sellerCount;\n  uint blacklistCount;\n  uint itemCount;\n  uint constant maxAuctionTime = 60*60*24*30; // 1 Month Max Auction TIME\n  uint constant minGasCost = 20000; // Note - Dec 2018 gas = 20,000 GWEI\n  uint constant MaxRating = 100;\n\n  // Flag for circuit breaker pattern\n  bool private stopped;\n\n  /** Start contract by defining owner and making him an admin**/\n  constructor() public {\n    stopped = false;\n    owner = msg.sender;\n    admins [owner] = 1;  adminCount = 1;\n    itemCount = 0;\n    sellerCount = 0;\n    blacklistCount = 0;\n  }\n\n  // Make reader-friendly enum for state of a sale\n  enum State{ForSale, ForAuction, Sold, Shipped, Received}\n\n  // Events emitted when the state of a sale changes\n  event ForSale(uint itemNumber);\n  event ForAuction (uint itemNumber);\n  event Sold (uint itemNumber);\n  event Shipped(uint itemNumber);\n  event Received (uint itemNumber);\n  event HighestBidIncreased(uint itemNumber, address bidder, uint amount);\n  event AuctionEnded(address winner, uint amount);\n\n  /** Only one item type\n  * reused for both sales and auctions\n  * to reduce complexity of code.\n  * Simplicity is prioritized to minimize\n  * possible security flaws\n  **/\n  struct Item{\n    uint itemNumber;\n    string name;\n    uint category;\n    uint price;\n    State state;\n    address payable seller;\n    address payable buyer;\n    uint auctionStartTime;\n    uint auctionLengthTime;\n    address payable highestBidder;\n    uint highestBid;\n    string ipfsHash; //link to picture\n  }\n\n//------------------------------------------------------------------------\n/** List all modifiers **/\n  /** Circuit Breaker Modifiers **/\n  modifier stopInEmergency { if (!stopped) _; }\n  modifier onlyInEmergency { if (stopped) _; }\n\n  /** Permission modifiers **/\n  modifier isOwner{require(msg.sender == owner);_;}\n  modifier isAdmin{require (admins[msg.sender]==1);_;}\n  modifier isSeller{require (sellers[msg.sender]==1);  _;  }\n  modifier isNotBlacklisted{require(blacklist[msg.sender] ==0); _;}\n\n  /** Verify sales have correct inputs **/\n  modifier verifyCaller (address _address) { require (msg.sender == _address); _;}\n  modifier isEnoughMoney(uint _price){require(_price <= msg.value); _;}\n  modifier isDuringAuction (uint _start, uint _length){\n    require (now >= _start);\n    require (now < (_start + _length));\n    _;\n  }\n  modifier isValidBid (uint _currentMaxBid){require(msg.value > _currentMaxBid); _;}\n\n  /** Verify correct item state **/\n  modifier isForSale(State _state){require(_state == State.ForSale); _;}\n  modifier isForAuction(State _state){require(_state == State.ForAuction); _;}\n  modifier isSold (Item memory item) { require(item.state == State.Sold); _;}\n  modifier isShipped (Item memory item) { require(item.state == State.Shipped); _;}\n  modifier isReceived (Item memory item) { require(item.state == State.Received); _;}\n\n//------------------------------------------------------------------------\n  /** Circuit Breaker can be triggered by owner **/\n  function toggleStop() isAdmin public {\n      stopped = !stopped;\n  }\n\n  /** Total number of items that have ever been auctioned or sold **/\n  function getNumItems() public view returns (uint){\n    return(itemCount);\n  }\n\n  /** Next several functions check and set permissions **/\n  /** verify whether address is an admin */\n  function checkAdmin (address addr) public view returns (uint){\n    return(admins[addr]);\n  }\n\n  /** verify whether an address is a seller*/\n  function checkSeller(address addr) public view returns (uint){\n    return(sellers[addr]);\n  }\n\n  /** verifies whether an address is blacklisted*/\n  function checkBlacklist(address addr) public view returns (uint){\n    return(blacklist[addr]);\n  }\n\n  /** add or remove an admin */\n  function addAdmin (address newAdmin) public payable isAdmin{\n    require(admins[newAdmin] ==0 && blacklist[newAdmin] ==0);\n    admins[newAdmin] = 1; adminCount++;\n  }\n  function removeAdmin (address newAdmin) public isAdmin{\n    require(admins[newAdmin] == 1 && adminCount > 0);\n    admins [newAdmin] = 0;adminCount--;\n  }\n\n  /** Add or remove a seller*/\n  function addSeller (address newSeller) public payable isAdmin{\n    require(sellers[newSeller] == 0 && blacklist[newSeller] ==0);\n    sellers [newSeller] = 1; sellerCount++;\n    Lib.setJoinDate(sellerProfiles, now, newSeller);\n  }\n  function removeSeller (address newSeller) public isAdmin{\n    require(sellers[newSeller] == 1 && sellerCount > 0);\n    sellers [newSeller] = 0; sellerCount--;\n  }\n\n  /** Add or remove someone from the blacklist*/\n  function addBlacklist (address newBlacklist) public isAdmin{\n    require(blacklist[newBlacklist] ==0);\n    blacklist[newBlacklist] = 1; blacklistCount++;\n  }\n  function removeBlacklist (address newBlacklist) public isAdmin{\n    require(blacklist[newBlacklist] ==1);\n    blacklist[newBlacklist] = 0; blacklistCount--;\n  }\n\n  /** mappings*/\n  mapping (address=>uint) admins;\n  mapping (address=>uint) sellers;\n  Lib.SellerList sellerProfiles;\n  mapping (address=>uint) blacklist;\n  mapping (uint=>Item) items;\n  mapping (address=>uint) pendingReturns;\n\n  //------------------------------------------------------------------------\n\n  /**  addItem puts an item up for either sale or auction\n  * Ony seller can add items\n  * Can be either auction or straight up sale\n  * Auctions start immediately with no minimum bid\n  */\n  function addItem(string memory _name, uint _price, State _state, uint _auctionLengthTime, string memory _ipfsHash)\n  isSeller isNotBlacklisted stopInEmergency public returns(bool){\n    require ((_state == State.ForSale || _state == State.ForAuction) &&\n      (_auctionLengthTime >= 0 && _auctionLengthTime < maxAuctionTime));\n    //emit ForSale(itemCount);\n    items[itemCount] = Item({\n      name: _name,\n      itemNumber: itemCount,\n      category:0,\n      price: _price,\n      state: _state,\n      seller: msg.sender,\n      auctionStartTime: now,\n      auctionLengthTime: _auctionLengthTime,\n      highestBidder: 0x0000000000000000000000000000000000000000,\n      highestBid:0,\n      ipfsHash: _ipfsHash,\n      buyer: 0x0000000000000000000000000000000000000000\n    });\n    itemCount++;\n    return true;\n  }\n\n  /**\n  *  submitBid\n  * if it is an auction, submit your bid\n  * if your bid is highest, the previous high highBidder\n  * has hid bid set aside so he can withdraw it separately\n  */\n  function submitBid (uint itemNumber) public payable //Can be public because of isForAuction modiier\n    isNotBlacklisted isForAuction(items[itemNumber].state)\n    isDuringAuction(items[itemNumber].auctionStartTime, items[itemNumber].auctionLengthTime)\n    isValidBid(items[itemNumber].highestBid)\n    stopInEmergency\n  {\n      if (items[itemNumber].highestBidder != 0x0000000000000000000000000000000000000000){\n        pendingReturns[items[itemNumber].highestBidder] += items[itemNumber].highestBid;}\n      items[itemNumber].highestBidder = msg.sender;\n      items[itemNumber].highestBid = msg.value;\n      emit HighestBidIncreased(itemNumber, msg.sender, msg.value);\n\n  }\n\n  /**\n  *  auctionEnd\n  * Can be called by either winning bidder or seller\n  * once the auction time has expired\n  * The item is now transferred to the winner\n  * and the ether to the seller\n  */\n  function auctionEnd (uint itemNumber) isForAuction(items[itemNumber].state) public payable {\n\n    // Auction can be ended by seller, winning bidder, or administrator\n    require( (items[itemNumber].highestBidder == msg.sender) ||\n      (items[itemNumber].seller == msg.sender) ||\n      (admins[msg.sender] == 1));\n    require(items[itemNumber].state == State.ForAuction);\n    require(items[itemNumber].highestBid > minGasCost);\n    require(now > items[itemNumber].auctionStartTime + items[itemNumber].auctionLengthTime);\n    items[itemNumber].state = State.Sold;\n    address payable _seller = items[itemNumber].seller;\n    uint _price = items[itemNumber].highestBid;\n    _seller.transfer(_price);\n    Lib.addSale(sellerProfiles, items[itemNumber].seller);\n  }\n\n  /**\n  *  withdraw\n  * If you did not win the auction, you can withdraw\n  * your losing bid\n  */\n  function withdraw() public payable {\n      uint amount = pendingReturns[msg.sender];\n      if (amount > 0) {\n        pendingReturns[msg.sender] = 0;\n        msg.sender.transfer(amount);\n      }\n  }\n\n  /**\n  *  buyItem\n  * purchase for a fixeed Price\n  * Money goes directly to seller\n  */\n  function buyItem(uint itemNumber) public payable //Can be public because of isForSale modiier\n  isNotBlacklisted\n  isForSale(items[itemNumber].state)\n  isEnoughMoney(items[itemNumber].price)\n  stopInEmergency\n  {\n    items[itemNumber].seller.transfer(items[itemNumber].price);\n    items[itemNumber].buyer =  msg.sender;\n    items[itemNumber].state = State.Sold;\n\n    emit Sold(itemNumber);\n    Lib.addSale(sellerProfiles, items[itemNumber].seller);\n\n    uint _price = items[itemNumber].price;\n    uint amountToRefund = msg.value - _price;\n    items[itemNumber].buyer.transfer(amountToRefund);\n  }\n\n  function shipItem(uint itemNumber) public\n  isSold (items[itemNumber]) verifyCaller(items[itemNumber].seller){\n    items[itemNumber].state = State.Shipped;\n    emit Shipped(itemNumber);\n  }\n\n  /**\n  *  receiveItem\n  * Update supply chain information\n  * Allow the buyer to rate the seller once item is received\n  */\n  function receiveItem(uint itemNumber, bool rateSeller, uint _sellerRating)\n  public isShipped (items[itemNumber]) verifyCaller(items[itemNumber].buyer) {\n    items[itemNumber].state = State.Received;\n    emit Received(itemNumber);\n    if (rateSeller == true){\n      require (_sellerRating >= 0 && _sellerRating <= MaxRating);\n      Lib.addRating(sellerProfiles, items[itemNumber].seller, _sellerRating);\n    }\n    // reset variables to 0 to free up memory and get back Eth\n  }\n\n  /**\n  *  getIpfsHash\n  * Return the ipfs hash of the image of the product for sale\n  */\n  function getIpfsHash(uint itemNumber) public view returns(string memory){\n    require(itemNumber <= itemCount);\n    return items[itemNumber].ipfsHash;\n  }\n\n  /**\n  *  getItemData\n  * Return as much of the item data as Solidity's stack can hold\n  * Have to return highest bidder and ipfsHash separately\n  */\n  function getItemData(uint itemNumber) public view\n    returns (string memory _name, uint _price, uint _auctionStart, uint _auctionLength,\n    uint _highestBid, State _state, address _seller){\n    require(itemNumber <= itemCount);\n    return(items[itemNumber].name,\n      items[itemNumber].price,\n      items[itemNumber].auctionStartTime,\n      items[itemNumber].auctionLengthTime,\n      items[itemNumber].highestBid,\n      items[itemNumber].state,\n      items[itemNumber].seller);\n  }\n\n  /**\n  *  getHighBidder\n  * Return the current highest bidder for an auction\n  * The returns for \"getItemData\" were maxed out so\n  * this had to be in a separate function\n  */\n  function getHighBidder(uint itemNumber) public view returns(address){\n      require(itemNumber <= itemCount);\n      return items[itemNumber].highestBidder;\n    }\n\n}\n",
  "sourcePath": "/home/michael/Documents/Final/contracts/Final.sol",
  "compiler": {
    "name": "solc",
    "version": "0.5.0+commit.1d4f565a.Emscripten.clang"
  },
  "schemaVersion": "3.0.0",
  "updatedAt": "2019-01-26T04:18:09.165Z",
  "devdoc": {
    "methods": {}
  },
  "userdoc": {
    "methods": {
      "addAdmin(address)": {
        "notice": "add or remove an admin "
      },
      "addBlacklist(address)": {
        "notice": "Add or remove someone from the blacklist"
      },
      "addItem(string,uint256,uint8,uint256,string)": {
        "notice": "addItem puts an item up for either sale or auction Ony seller can add items Can be either auction or straight up sale Auctions start immediately with no minimum bid"
      },
      "addSeller(address)": {
        "notice": "Add or remove a seller"
      },
      "auctionEnd(uint256)": {
        "notice": "auctionEnd Can be called by either winning bidder or seller once the auction time has expired The item is now transferred to the winner and the ether to the seller"
      },
      "buyItem(uint256)": {
        "notice": "buyItem purchase for a fixeed Price Money goes directly to seller"
      },
      "checkAdmin(address)": {
        "notice": "verify whether address is an admin "
      },
      "checkBlacklist(address)": {
        "notice": "verifies whether an address is blacklisted"
      },
      "checkSeller(address)": {
        "notice": "verify whether an address is a seller"
      },
      "constructor": "Start contract by defining owner and making him an admin*",
      "getHighBidder(uint256)": {
        "notice": "getHighBidder Return the current highest bidder for an auction The returns for \"getItemData\" were maxed out so this had to be in a separate function"
      },
      "getIpfsHash(uint256)": {
        "notice": "getIpfsHash Return the ipfs hash of the image of the product for sale"
      },
      "getItemData(uint256)": {
        "notice": "getItemData Return as much of the item data as Solidity's stack can hold Have to return highest bidder and ipfsHash separately"
      },
      "getNumItems()": {
        "notice": "Total number of items that have ever been auctioned or sold *"
      },
      "receiveItem(uint256,bool,uint256)": {
        "notice": "receiveItem Update supply chain information Allow the buyer to rate the seller once item is received"
      },
      "submitBid(uint256)": {
        "notice": "submitBid if it is an auction, submit your bid if your bid is highest, the previous high highBidder has hid bid set aside so he can withdraw it separately"
      },
      "toggleStop()": {
        "notice": "Circuit Breaker can be triggered by owner *"
      },
      "withdraw()": {
        "notice": "withdraw If you did not win the auction, you can withdraw your losing bid"
      }
    },
    "notice": "Main contract for ethereum store *"
  }
}