{
  "contractName": "Lib",
  "abi": [
    {
      "constant": true,
      "inputs": [
        {
          "name": "self",
          "type": "Lib.SellerList storage"
        },
        {
          "name": "a",
          "type": "address"
        }
      ],
      "name": "getJoinDate",
      "outputs": [
        {
          "name": "",
          "type": "uint256"
        }
      ],
      "payable": false,
      "stateMutability": "view",
      "type": "function"
    },
    {
      "constant": true,
      "inputs": [
        {
          "name": "self",
          "type": "Lib.SellerList storage"
        },
        {
          "name": "a",
          "type": "address"
        }
      ],
      "name": "getNumSales",
      "outputs": [
        {
          "name": "",
          "type": "uint256"
        }
      ],
      "payable": false,
      "stateMutability": "view",
      "type": "function"
    }
  ],
  "bytecode": "0x6101f6610030600b82828239805160001a6073146000811461002057610022565bfe5b5030600052607381538281f3fe7300000000000000000000000000000000000000003014608060405260043610610063576000357c0100000000000000000000000000000000000000000000000000000000900463ffffffff1680638f2da7a514610068578063c760b229146100ca575b600080fd5b6100b46004803603604081101561007e57600080fd5b8101908080359060200190929190803573ffffffffffffffffffffffffffffffffffffffff16906020019092919050505061012c565b6040518082815260200191505060405180910390f35b610116600480360360408110156100e057600080fd5b8101908080359060200190929190803573ffffffffffffffffffffffffffffffffffffffff16906020019092919050505061017b565b6040518082815260200191505060405180910390f35b60008260000160008373ffffffffffffffffffffffffffffffffffffffff1673ffffffffffffffffffffffffffffffffffffffff16815260200190815260200160002060020154905092915050565b60008260000160008373ffffffffffffffffffffffffffffffffffffffff1673ffffffffffffffffffffffffffffffffffffffff1681526020019081526020016000206003015490509291505056fea165627a7a723058207d0e70f1081953d0e8d69aa22f7f853da2b2fff24b11fb288323746afc050ada0029",
  "source": "pragma solidity ^0.5.0;\n\n/**  Lib contains profile data for sellers */\nlibrary Lib{\n\n  /**\n  *  SellerProfile\n  * all profile data for seller\n  * ipfsHash to be implemented later\n  */\n  struct SellerProfile{\n    //address sellerAddress;\n    uint sellerRating;\n    uint numRatings;\n    uint numSales;\n    uint joinDate;\n    // IPFS profile picture Hash to be added later\n  }\n\n  /**  SellerList the main mapping variable */\n  struct SellerList{\n    mapping(address=>SellerProfile) sellerProfiles;\n  }\n\n  /**  setJoinDate sets when the person became a seller */\n  function setJoinDate(SellerList storage self, uint _joinDate, address a) internal {\n    require(self.sellerProfiles[a].joinDate == 0);\n    self.sellerProfiles[a].joinDate = _joinDate;\n  }\n  /**  addSale increments the number of sales in this person's name */\n  function addSale(SellerList storage self, address a) internal {\n    self.sellerProfiles[a].numSales ++;\n  }\n  /**  getJoinDate tells us when this address became a seller */\n  function getJoinDate(SellerList storage self, address a) public view returns (uint){\n    return self.sellerProfiles[a].joinDate;\n  }\n  /**  getNumSales tells how many sales came from this address */\n  function getNumSales(SellerList storage self, address a) public view returns (uint){\n    return self.sellerProfiles[a].numSales;\n  }\n  /**  addRating lets the buyer rate the seller */\n  function addRating(SellerList storage self, address a, uint _sellerRating)internal {\n    uint rating = self.sellerProfiles[a].sellerRating;\n    uint numRatings = self.sellerProfiles[a].numRatings;\n    self.sellerProfiles[a].sellerRating = uint(((rating * numRatings) + _sellerRating) / (numRatings + 1));\n    self.sellerProfiles[a].numRatings++;\n  }\n\n}\n",
  "sourcePath": "/home/michael/Documents/Final/contracts/FinalLibrary.sol",
  "compiler": {
    "name": "solc",
    "version": "0.5.0+commit.1d4f565a.Emscripten.clang"
  },
  "schemaVersion": "3.0.0",
  "updatedAt": "2019-01-26T02:08:55.462Z",
  "devdoc": {
    "methods": {}
  },
  "userdoc": {
    "methods": {
      "getJoinDate(Lib.SellerList storage,address)": {
        "notice": "getJoinDate tells us when this address became a seller "
      },
      "getNumSales(Lib.SellerList storage,address)": {
        "notice": "getNumSales tells how many sales came from this address "
      }
    },
    "notice": "Lib contains profile data for sellers "
  }
}