{
  "contractName": "Registry",
  "abi": [
    {
      "inputs": [
        {
          "name": "newBackend",
          "type": "address"
        }
      ],
      "payable": false,
      "stateMutability": "nonpayable",
      "type": "constructor"
    },
    {
      "payable": true,
      "stateMutability": "payable",
      "type": "fallback"
    },
    {
      "constant": false,
      "inputs": [
        {
          "name": "newBackend",
          "type": "address"
        }
      ],
      "name": "changeBackend",
      "outputs": [
        {
          "name": "",
          "type": "bool"
        }
      ],
      "payable": false,
      "stateMutability": "nonpayable",
      "type": "function"
    }
  ],
  "bytecode": "0x608060405234801561001057600080fd5b506040516020806103df8339810180604052602081101561003057600080fd5b810190808051906020019092919050505033600260006101000a81548173ffffffffffffffffffffffffffffffffffffffff021916908373ffffffffffffffffffffffffffffffffffffffff160217905550806000806101000a81548173ffffffffffffffffffffffffffffffffffffffff021916908373ffffffffffffffffffffffffffffffffffffffff1602179055505061030d806100d26000396000f3fe608060405260043610610041576000357c0100000000000000000000000000000000000000000000000000000000900463ffffffff168063eaecfca7146100ea575b600060606000809054906101000a900473ffffffffffffffffffffffffffffffffffffffff1673ffffffffffffffffffffffffffffffffffffffff16600036604051808383808284378083019250505092505050600060405180830381855af49150503d80600081146100d0576040519150601f19603f3d011682016040523d82523d6000602084013e6100d5565b606091505b50915091508115156100e657600080fd5b5050005b3480156100f657600080fd5b506101396004803603602081101561010d57600080fd5b81019080803573ffffffffffffffffffffffffffffffffffffffff169060200190929190505050610153565b604051808215151515815260200191505060405180910390f35b6000600260009054906101000a900473ffffffffffffffffffffffffffffffffffffffff1673ffffffffffffffffffffffffffffffffffffffff163373ffffffffffffffffffffffffffffffffffffffff161415156101b157600080fd5b6000809054906101000a900473ffffffffffffffffffffffffffffffffffffffff1673ffffffffffffffffffffffffffffffffffffffff168273ffffffffffffffffffffffffffffffffffffffff161415156102d75760016000809054906101000a900473ffffffffffffffffffffffffffffffffffffffff1690806001815401808255809150509060018203906000526020600020016000909192909190916101000a81548173ffffffffffffffffffffffffffffffffffffffff021916908373ffffffffffffffffffffffffffffffffffffffff16021790555050816000806101000a81548173ffffffffffffffffffffffffffffffffffffffff021916908373ffffffffffffffffffffffffffffffffffffffff160217905550600190506102dc565b600090505b91905056fea165627a7a72305820d73cfc10bcce78dc5043189f11cbdeef682862be3d900bf57594019d3dc1f5a60029",
  "source": "pragma solidity ^0.5.0;\n\n\nimport \"./Final.sol\";\n\ncontract Registry{\n  address backend;\n  address[] prevBackends;\n  address owner;\n\n  constructor (address newBackend) public{\n    owner = msg.sender;\n    backend = newBackend;\n  }\n\n  modifier onlyOwner(){\n    require(msg.sender == owner);\n    _;\n  }\n\n  function changeBackend(address newBackend) public onlyOwner() returns (bool){\n    if(newBackend !=backend){\n      prevBackends.push(backend);\n      backend = newBackend;\n      return true;\n    }\n    return false;\n  }\n\n  function() external payable {\n    (bool success, bytes memory data) = backend.delegatecall(msg.data);\n    if (!success){revert();}\n\n  }\n}\n",
  "sourcePath": "/home/michael/Documents/Final/contracts/registry.sol",
  "compiler": {
    "name": "solc",
    "version": "0.5.0+commit.1d4f565a.Emscripten.clang"
  },
  "schemaVersion": "3.0.0",
  "updatedAt": "2019-01-25T23:50:04.318Z",
  "devdoc": {
    "methods": {}
  },
  "userdoc": {
    "methods": {}
  }
}